:020000040800F2
:10000000B80400200101000867170008C5130008A4
:10001000651700086D0700087D1D0008000000003E
:100020000000000000000000000000006D1C00083F
:100030006F07000800000000051A00086F1C000888
:100040001B0100081B0100081B0100081B01000820
:100050001B0100081B0100081B0100081B01000810
:100060001B0100081B0100081B0100081B01000800
:100070001B0100081B0100081B0100081B010008F0
:100080001B0100081B0100081B0100081B010008E0
:100090001B0100081B0100081B0100081B010008D0
:1000A0001B0100081B0100081B0100081B010008C0
:1000B0001B0100081B0100081B0100081B010008B0
:1000C0001B0100081B0100081B0100081B010008A0
:1000D0001B0100081B0100081B0100081B01000890
:1000E0001B0100081B0100081B010008DFF80CD0F1
:1000F00000F02AFB00480047CD260008B804002085
:100100000648804706480047FEE7FEE7FEE7FEE7B1
:10011000FEE7FEE7FEE7FEE7FEE7FEE7C11C00089C
:10012000ED000008202A04DB203A21FA02F0002129
:10013000704721FA02F3D040C2F1200291400843F7
:1001400019467047D2B201E000F8012B491EFBD2DC
:1001500070470022F6E710B513460A4604461946D2
:10016000FFF7F0FF204610BD2DE9FE4F804681EAE3
:100170000300C00F0C46009021F0004123F0004521
:10018000B8EB0200A94105D24046214690461C46E4
:100190000B46024623F00040104347D0270DC7F31B
:1001A0000A00C3F30A510290401A019040286BDA0A
:1001B000C3F3130040F4801B0098924620B1002343
:1001C000D2EB030A63EB0B0B01985946C0F14002D6
:1001D000504600F065F906460D4650465946019ACC
:1001E00000F06DF910EB08006141002487EA11521C
:1001F00084EAE7731A4340D0009A62B3019A012A55
:100200004FEA075215DC001B61EB02014FF0004280
:1002100002EA0752CDE90042001C41F58011324646
:100220002B4600F0A4F903B0BDE8F08F404621460C
:10023000F9E7001B61EB0201001C41F58013001877
:100240005B412018A2F5001747EB030140EAD57087
:10025000B6196D4111E06D084FEA360645EAC075E2
:100260004FEA0752001B61EB0201001C41F58011AF
:1002700049084FEA30000019514132462B4603B07D
:10028000BDE8F04F00F064B900980122400000235F
:10029000D0EB020263EBE073009821464FEAE07472
:1002A000B8EB000061EB0401E9E783F000435BE792
:1002B00081F0004158E72DE9FE4F81EA030404F084
:1002C000004421F0004100944FF0000B23F0004364
:1002D00050EA01045ED052EA03045BD0C3F30A542F
:1002E000C1F30A552C44A4F2F3340194A0FB025448
:1002F000C1F3130141F48011C3F3130343F48013DA
:1003000001FB024400FB034E840A970A44EA81542D
:1003100047EA8357A4FB076802958D0A05FB07850A
:100320004FEA932C04FB0C542705029D4FEA065814
:1003300047EA1637B5EB08056EEB070C870E920EF1
:1003400047EA811742EA8312A7FB0201B6EB0B01D1
:1003500064EB00042B0D43EA0C335E1844EB1C5095
:10036000DA465146E7FB0201C5F313044FEA0B33AB
:1003700043EA14534FEA0432019C43EA0603A4F112
:100380000C040294009CCDE900B400F0F0F803B036
:10039000BDE8F08F00200146F9E70EB540F2334189
:1003A00002910021CDE900110A460B4600F0DFF86A
:1003B00003B000BD00F0004230F000400AD0C10D93
:1003C00001F56071C0F3160042EA0151C20840070E
:1003D0001143704700200146704701F0004330B4DC
:1003E00021F0004150EA010206D00A0DA2F5607228
:1003F000C1F31301002A02DC30BC00207047440F17
:1004000044EAC104C100E01830BC00EBC25000F067
:1004100068B830B50B46014600202022012409E0CF
:1004200021FA02F59D4205D303FA02F5491B04FAAD
:1004300002F52844151EA2F10102F1DC30BD2DE9C0
:10044000F05F0546002092469B4688460646814658
:1004500040241BE02846414647462246FFF762FEFD
:1004600053465A46C01A914110D3114618462246A7
:1004700000F016F82D1A67EB01084F4622460120BE
:10048000002100F00DF817EB00094E41201EA4F1E9
:100490000104DFDC484631462A464346BDE8F09F6A
:1004A000202A04DB203A00FA02F100207047914034
:1004B000C2F1200320FA03F3194390407047202A29
:1004C00006DBCB17203A41FA02F043EAE07306E07C
:1004D00041FA02F3D040C2F120029140084319468C
:1004E00070470029A8BF7047401C490008BF20F092
:1004F0000100704710B4B0FA80FC00FA0CF050EA2A
:10050000010404BF10BC704749B1CCF1200421FAAA
:1005100004F411FA0CF118BF012121430843A3EBA5
:100520000C01CB1D4FEA00614FEA102042BF0020B2
:1005300010BC704700EBC35010440029A4BF10BC8E
:100540007047401C490008BF20F0010010BC7047F4
:1005500010B5141E73F1000408DA401C41F10001CB
:1005600092185B411A4301D120F0010010BD2DE922
:10057000F04D92469B4611B1B1FA81F202E0B0FA19
:1005800080F220329046FFF78BFF04460F4640EA88
:100590000A0041EA0B0153465A46084313D011465C
:1005A00053EA010019D0C8F140025046FFF7BAFDE6
:1005B00005460E46504659464246FFF771FF08432E
:1005C00005D0012004E020463946BDE8F08D00202A
:1005D000054346EAE0762C4337430A986305E40A6C
:1005E000A0EB08000022FD0A44EA47540A3002D575
:1005F00000200146E9E7010510196941DDE90845D8
:1006000000196941BDE8F04DA2E72DE9F04D81EAFE
:10061000030404F0004B21F0004514464FF0000A9B
:1006200023F0004150EA050220D054EA01021DD017
:10063000C5F30A570246C5F31303C1F31300C1F310
:100640000A5640F4801543F48013A7EB0608101BEC
:10065000D64608F2FD3873EB050002D308F1010815
:1006600001E092185B41B8F1000F03DA0020014667
:10067000BDE8F08D00204FF48011064684460EE060
:10068000171B73EB050705D3121B63EB050306432A
:100690004CEA010C49084FEA300092185B4150EADD
:1006A0000107EDD152EA030012D082EA040083EA86
:1006B0000501084305D0101BAB4106D201220023DF
:1006C00006E000224FF0004302E06FF001025310F9
:1006D0001AEB06004CEB085110EB0A0041EB0B0142
:1006E000BDE8F04DFFF734BFC1F30A52C1F3130167
:1006F00040F2FF3341F480119A4202DA00200146B1
:10070000704740F233439A42A2F2334202DC524233
:10071000FFF708BDFFF7C4BE30B5041E71F1000439
:1007200004DB4FF00044404264EB0101141E73F1FE
:10073000000405DB1C464FF00043524263EB040308
:10074000994208BF904230BD064C074D06E0E06874
:1007500040F0010394E8070098471034AC42F6D308
:10076000FFF7C8FC882F0008A82F0008FEE7704795
:100770007047000070B5044600F010F90546601C93
:1007800002D004480078044400F008F9401BA0425D
:10079000FAD370BD080000202DE9F84FDFF8B891BA
:1007A000002409F1040A0AF1040B23460F270BF178
:1007B000040EC9E00125A5402A40AA427DD1674E1A
:1007C000D1F804C0ACEB0608B44532D014DCBCF15F
:1007D000030F3AD009DCBCF1000F2AD0BCF1010FA5
:1007E0001CD0BCF1020F31D11DE0BCF1110F17D0AC
:1007F000BCF1120F2AD119E0B8F5881F19D006DC18
:10080000B8F5803F15D0B8F5801F1FD111E0B8F5BD
:10081000001F0ED0B8F5041F18D10AE0CB6815E010
:10082000CB681B1D12E0CB6808330FE0CB680C339C
:100830000CE08B682BB1012B4FF0080303D045610E
:1008400004E0042302E0056100E00023FF2A01D850
:10085000064601E000F104064FEA840501D9A5F13E
:100860002005D6F8008007FA05FC28EA0C0803FAF0
:1008700005F548EA0508C6F800804D68ED0062D528
:10088000374DAE6946F00106AE61AD6924F003064E
:1008900005F001050095334D06EB050CDCF808501A
:1008A000A607360F07FA06F825EA0805DFF8B8802C
:1008B000404503D14FF0000817E044E0DFF8AC807A
:1008C000404502D14FF001080FE0DFF8A480404519
:1008D00002D14FF0020808E0DFF89880404502D1CD
:1008E0004FF0030801E04FF0040808FA06F848EA60
:1008F0000508CCF808804D68D9F80060ED034D4636
:1009000001D5164300E096432E604D68DAF800608A
:10091000AD03554601D5164300E096432E604D6861
:10092000DBF80060ED025D4601D5164300E096431A
:100930002E604D68DEF80060AD02754601D51643A5
:1009400000E096432E60641C0D682A46E5407FF463
:1009500031AFBDE8F88F0000000401400000111025
:10096000001002400000014000080140000C01405E
:1009700000100140001401408068084000D00120B0
:100980007047C26821EA02030A4043EA024101615A
:1009900070470AB1016170470904FBE701488068AC
:1009A000704700000800002070B5040025D094F8BE
:1009B0003D00002520B984F83C50204600F050F955
:1009C000242084F83D002068016821F001010160C5
:1009D0002068016841F4004101602068016821F449
:1009E0000041016000F08AFA4D4A6168914201D8E5
:1009F0004C4900E04C49884201D2012070BD4B496E
:100A00002368B0FBF1F15E6826F03F060E435E609E
:100A10006368934206D94FF4967359434FF47A733F
:100A2000B1FBF3F12368491C1E6A26F03F063143EF
:100A300019626168914210D84900401EB0FBF1F282
:100A4000521CC2F30B02042A01D2042022E0B0FBA4
:100A5000F1F0401CC0F30B001CE0A268F2B301EB04
:100A6000C10303EB0116431EB3FBF6F35B1C43F417
:100A700080431B0549D092B301EBC10202EB011187
:100A8000401EB0FBF1F0401CC0F30B0040F480406E
:100A900040F400402168CA694CF6FF739A43104342
:100AA000C861D4E9071001432068026822F0C0023F
:100AB00011430160D4E9030101432068826848F2D0
:100AC000FF339A4311438160D4E90501084321684B
:100AD000CA6822F0FF021043C86001E00EE016E091
:100AE0002068016841F0010101602564202084F83C
:100AF0003D00256384F83E50002070BD01EB4106A7
:100B0000431EB3FBF6F35B1CB3E70120C2E701EB26
:100B10004101401EB0FBF1F0401CC0F30B00B7E7F1
:100B2000A086010080841E0000093D0040420F00A5
:100B30002DE9FF4F83B09A46DDE9119793460446AD
:100B4000DDF84080FFF72AFF054694F83D00202895
:100B50007FD11923012240492046009500F0C4FCB2
:100B6000002876D194F83C00012872D0012084F846
:100B70003C0020680168C90703D1016841F0010108
:100B800001602068016821F400610160212084F87F
:100B90003D00402084F83E0000262664C4F82480EE
:100BA000A4F82A90608D20852C48E062CDE900757C
:100BB00053465A462046049900F01CFC70B930E0B8
:100BC0002A463946204600F00EFD58B1206C042814
:100BD00004D12068016841F400710160012007B070
:100BE000BDE8F08F606A216800780861606A401C87
:100BF0006062218D491E89B22185628D521E6285F7
:100C000022685369DB435B070BD469B1007810613C
:100C1000606A401C6062208D401E2085608D401EF1
:100C20006085208D0028CBD12A463946204600F029
:100C300035FC0028CAD154F83D0B016841F400711D
:100C40000160202004F81E09E67766770020C6E7D9
:100C5000FFE70220C3E70000020010000000FFFFD2
:100C600010B586B0002100910191029103910068B6
:100C70000F4988421AD10F4CA06940F00800A061CA
:100C8000A069694600F008000490C020009012207E
:100C90000190032003900848FFF77EFDE06940F4CF
:100CA0000010E061E06900F40010049006B010BD8F
:100CB0000054004000100240000C014002488168CE
:100CC000027811448160704708000020074810B581
:100CD000016841F010010160032000F067F8002076
:100CE00000F006F800F024F8002010BD00200240BB
:100CF00070B50D4D04464FF47A712878B1FBF0F0D1
:100D00000A490968B1FBF0F000F0DEFA48B9102C8E
:100D100007D200222146501E00F028F800206C6007
:100D200070BD012070BD00000800002014000020EC
:100D30000C4808B5816941F001018161816901F0C8
:100D400001010091C16941F08051C161C06900F0A9
:100D5000805000900448416821F0E06141F08061DA
:100D6000416008BD0010024000000140F0B40E4B8D
:100D70001B680C46C3F30223C3F10705042D00D9F9
:100D80000425191D072901D2002300E0DB1E0126DE
:100D900006FA05F1491E214099409E40761E1640F4
:100DA0003143F0BC01F024B80CED00E0064900F03E
:100DB000070208684FF6FF03184040EA0220034A82
:100DC00010430860704700000CED00E00000FA05D9
:100DD0002DE9F0470F46050061D0434E306800F022
:100DE0000700B84209D2306820F00700384330606D
:100DF000306800F00700B84251D128683B4C8107A9
:100E000012D5400703D5606840F4E0606060287840
:100E1000000703D5606840F4605060606068A968AE
:100E200020F0F000084360602878C00728D0686888
:100E3000012810D02168022810D0890700292EDA55
:100E4000616821F0030101436160FFF7A7FD80465F
:100E500041F288390DE021688903EFE78901EDE768
:100E6000FFF79CFDA0EB0801494502D90320BDE82E
:100E7000F0876068696800F00C00B0EB810FEFD17B
:100E8000306800F00700B8420BD9306820F0070046
:100E900038433060306800F00700B84201D00120CC
:100EA000E5E72878400705D56068E96820F4E06048
:100EB000084360602878000706D56068296920F437
:100EC000605040EAC100606000F038F86168084A8C
:100ED000C1F30311515CC840064908600648006828
:100EE000FFF706FF0020C2E700200240001002408A
:100EF000702F0008140000200C0000200448054951
:100F000000684968044AC1F30221515CC840704737
:100F10001400002000100240802F000804480549FA
:100F200000684968044AC1F3C221515CC840704757
:100F30001400002000100240802F000812A185B08C
:100F40000FC98DE80F0014A0144A0068049051687E
:100F5000134801F00C03042B10D0082B0ED1C1F361
:100F60008343C9031DF803000AD5516804AAC1F3DD
:100F70004041515C0A4A5043B0FBF1F005B0704764
:100F800008494843FAE70000020304050607080978
:100F90000A0B0C0D0E0F1010010200000010024091
:100FA00000127A0000093D002DE9F84F040070D0CE
:100FB0002078C04DC00749D06868C0F3810001287F
:100FC00007D06868C0F38100022809D16868C003AF
:100FD00006D52868800339D560680028E7D035E059
:100FE0006068B0F5803F0BD010B1B0F5A02F11D0E4
:100FF000286820F480302860286820F4802002E0EF
:10100000286840F480302860606890B1FFF7C6FC23
:1010100006460AE0286840F480202860F0E700BF18
:10102000FFF7BCFC801B642873D828688003F7D5C1
:101030000CE0FFF7B3FC064605E000BFFFF7AEFC8F
:10104000801B6428F0D828688003F7D420789A4E53
:1010500080074FF001094FF0000839D5686810F09B
:101060000C0F07D06868C0F38100022809D16868B6
:10107000C00306D42868800714D52069012808D148
:1010800010E02069B0B1C6F80090FFF787FC074672
:1010900005E00AE1FFF782FCC01B0228C4D82868DB
:1010A0008007F7D52868616920F0F80040EAC100A0
:1010B00028600DE0C6F80080FFF770FC074604E0EA
:1010C000FFF76CFCC01B022823D828688007F7D4E0
:1010D000207800072CD57948A169D9B1C0F80090D3
:1010E000FFF75CFC074604E0FFF758FCC01B022832
:1010F0000FD8686A8007F7D571484FF4FA51006835
:10110000B0FBF1F0009000BF0098411E0091FAD2B0
:101110000EE080E0C0F80080FFF740FC074604E0E6
:10112000FFF73CFCC01B022875D8686A8007F7D41B
:101130002078400760D5E8690027C00008D4E86936
:1011400040F08050E861E869012700F0805000908D
:101150005C480168C90513D40168834641F4807175
:101160000160FFF71BFC824606E000BFFFF716FC9C
:10117000A0EB0A0064284ED8DBF80000C005F5D5C6
:10118000E06801280AD008B1052813D0286A20F0A9
:1011900001002862286A20F0040002E0286A40F07A
:1011A00001002862E06841F2883B98B1FFF7F6FB46
:1011B00082460BE0286A40F004002862EEE700BF98
:1011C000FFF7ECFBA0EB0A0159455AD8286A8007C3
:1011D000F6D50CE0FFF7E2FB824605E0FFF7DEFB09
:1011E000A0EB0A0159454CD8286A8007F6D41FB1F4
:1011F000E86920F08050E861E06988B36968C1F36C
:101200008101022944D00228C6F8608004D0FFF78B
:10121000C5FB044638E034E0FFF7C0FB074604E0B6
:10122000FFF7BCFBC01B02282BD828688001F7D42D
:10123000206AB0F5803F05D16868A16820F40030CD
:1012400008436860D4E908010843696821F474110F
:1012500008436860C6F86090FFF7A0FB044606E00C
:1012600025E000BFFFF79AFB001B022809D8286879
:101270008001F7D51BE000BFFFF790FB001B0228A1
:1012800002D90320BDE8F88F28688001F4D40EE06D
:101290000128F7D06868226A00F48031914204D1B5
:1012A000616A00F47010884201D00120EAE7002052
:1012B000E8E7000000100240000042428004424281
:1012C000140000200070004010B5401EB0F1807F77
:1012D00001D3012010BD4FF0E02460610F216017A1
:1012E00000F086FD0020A06107202061002010BDD5
:1012F00070B5040004D094F83900002510B106E060
:10130000012070BD84F83850204600F023F82420D6
:1013100084F839002068C16821F40051C16020467A
:1013200000F0D0FC2068016921F49041016120683F
:10133000416921F02A0141612068C16841F40051EE
:10134000C160E563202084F8390084F83A00002069
:1013500070BD000030B585B0002400940194029463
:10136000039400681449884224D11448816941F4E7
:1013700080418161816901F480410491816941F07A
:101380000401816180690E4D00F0040004904FF467
:1013900000700090022001900320039069462846C7
:1013A000FFF7FAF92815CDE90004694628460294AA
:1013B000FFF7F2F905B030BD0038014000100240DF
:1013C00000080140FEE701684A69D24352050FD484
:1013D0006FF480624A61002140F8301F202242737E
:1013E0008173026942F004020261017301207047B7
:1013F000002070472DE9F843044600680D46DDE9FA
:10140000089701689846164641F4807101604B4682
:1014100000224FF001112046009700F065F848B116
:1014200020680068C00502D54FF4007020640320D6
:10143000BDE8F883216805F0FE0008613B464A4696
:101440001549204600F084F888B920684169806910
:1014500000903A464946204600F0C5F848B1206C55
:10146000042804D12068016841F400710160012062
:10147000DEE7F5B2B8F1010F09D02168300A086142
:101480003A464946204600F0AEF80028E7D12068E9
:1014900005610020CCE700000200010070B516468F
:1014A0000D4604460DE02046FFF78DFF08B10120F0
:1014B00070BD681C05D0FFF771FA801BA84207D8E1
:1014C00035B120684069C0434007ECD4002070BDAE
:1014D000002044F8300F20216173A073216941F08E
:1014E000200121612073E2E72DE9F0471E46904676
:1014F0000D460446C1F30747DDF8209008E0701C54
:1015000006D0FFF74BFAA0EB0900B0420FD876B136
:101510002068012F18D0806925EA00000004000C23
:1015200014D000214145EAD00020BDE8F08700201A
:1015300044F8300F20216173A073216941F020012C
:10154000216120730120F0E74069E5E70121E9E727
:101550002DE9F0479A4691460E46044600254FF085
:101560002008C1F3074725E020684069C0434005D3
:1015700014D42068016841F40071016021686FF49F
:1015800080604861256384F83D8084F83E50206C7B
:1015900040F00400206484F83C501FE0B9F1FF3FA4
:1015A00008D0FFF7FBF9A0EB0A0149450CD8B9F1C7
:1015B000000F09D02068012F13D0806926EA0000AF
:1015C0000004000C0BD0CFE744F8305F84F80D80A6
:1015D000A573206940F02000206125730120BDE83B
:1015E000F0874069EAE770B516460D4604460DE0FF
:1015F0002046FFF7E8FE08B1012070BD681C05D049
:10160000FFF7CCF9801BA84207D835B120684069A4
:10161000C0430006ECD4002070BD002044F8300F19
:1016200020216173A073216941F0200121612073A1
:10163000E2E700002DE9F04186B00024284800943C
:10164000019402940394816941F0100181618169E0
:1016500001F010010491816941F0200181618169EB
:1016600001F020010491816941F0080181618169E3
:1016700001F008010491816941F0040181618069F0
:10168000012200F00400174F550304902946384604
:10169000FFF77FF9DFF85080012203214046FFF772
:1016A00078F90095022601250396CDE90154694693
:1016B0003846FFF771F80320009001AA112082E854
:1016C000510069464046FFF767F828038DE831006E
:1016D00069464046FFF760F806B0BDE8F0810000BB
:1016E0000010024000100140000C01400D4810B5F0
:1016F0000B4901600C49416000214FF48042816038
:10170000C0E9031241618161C1610162FFF74CF9D7
:10171000002803D0BDE81040FFF72AB810BD000034
:101720000054004024000020A08601000C4810B5A1
:101730000A4901604FF4E1314160002181600C22CF
:10174000C160C0E904128161C161FFF7D1FD0028C9
:1017500003D0BDE81040FFF70BB810BD00380140C2
:1017600078000020FEE77047002000F001B800007C
:1017700070B506465FF0000404F1B000C0B200F09E
:10178000FFFA002000F0FCFA102000F0F9FA002522
:10179000304600F007FB6D1CEDB2802DF8D3641CC1
:1017A000E4B2082CE8D370BD10B54FF47A70FEF7A0
:1017B000E1FFAE2000F0E4FA202000F0E1FA102072
:1017C00000F0DEFAB02000F0DBFAC82000F0D8FA12
:1017D000002000F0D5FA102000F0D2FA402000F0EE
:1017E000CFFA812000F0CCFAFF2000F0C9FAA12046
:1017F00000F0C6FAA62000F0C3FAA82000F0C0FA54
:101800003F2000F0BDFAA42000F0BAFAD32000F087
:10181000B7FA002000F0B4FAD52000F0B1FAF020B9
:1018200000F0AEFAD92000F0ABFA222000F0A8FABE
:10183000DA2000F0A5FA122000F0A2FADB2000F076
:101840009FFA202000F09CFA8D2000F099FA1420D5
:1018500000F096FABDE81040AF2000F091BA10B544
:101860000446B031C8B200F08BFA102040EA1410E0
:1018700000F086FA04F00F00BDE8104040F00100CF
:1018800000F07EBA2DE9F047002591468A460446CD
:10189000012B22D0DFF8BC80022B24D155E0203868
:1018A000C7B27E2C04D90AF10100002400F0FF0A1F
:1018B00051462046FFF7D3FF07EB4700002608EB11
:1018C0004007B85D00F06EFA761CF6B2062EF8D32B
:1018D000A41D6D1CE4B2EDB201E0DFF87C8019F8C4
:1018E00005000028DBD1BDE8F0872038C7B2782C8E
:1018F00004D90AF10100002400F0FF0A51462046F5
:10190000FFF7ADFF5FF0000606EB071118F80100C6
:1019100000F048FA761CF6B2082EF5D30AF1010061
:10192000C1B22046FFF79BFF5FF0000606EB0711F0
:1019300001EB0800007A00F035FA761CF6B2082EAA
:10194000F4D308346D1CE4B2EDB219F80500002898
:10195000CBD1C8E780290008582700082DE9FC43AF
:1019600000264FF001084FF007094FF0800C6A463F
:101970008DF803608DF802608DF805608DF80180A8
:101980002F2305248DF804608DF80090002109E0D4
:101990005B1EDBB2072902D2491CC9B202E000215A
:1019A000641EE4B22CFA01F5075D2F4201D1002C30
:1019B000EED1A3F10801CCB214E00521551815F8B9
:1019C000015C2D0602D509B1012700E00027555C16
:1019D0006D0055543D445554491EC9B2FF29EDD3FD
:1019E000641EE4B2002CE8D10021445C555C6C40DC
:1019F0004454491CC9B20529F7D9082BB8D8007836
:101A0000BDE8FC8370470022002101E0491C89B237
:101A10008142FBD3521C92B2042AF5D370470000D6
:101A20002DE9FC4700264006224C8846050E00BFE3
:101A300000F0F8F8761E16F0FF0634D000F0CCF86F
:101A4000284600F0B5F80028F2D1404600F0B0F882
:101A50000028EDD100F0C0F86F1CF8B200F0A8F833
:101A60000028E5D100F068F82070002000F064F84C
:101A70006070012000F060F8814600F0D3F88DF826
:101A800005508DF804808DF8037020788DF80200E1
:101A900060788DF8010000208DF800006846FFF79F
:101AA0005DFF4845C4D12078617840EA012060801C
:101AB000BDE8FC870000002010B507210020FFF7DB
:101AC000AFFFFEF76AFC064A064BFEF7F4FB4FF049
:101AD0006632054BFEF7E9FBBDE81040FEF77DBC22
:101AE0007B14AE47E17A943F6612714070B5114D98
:101AF000012202212846FEF74CFF0F20FFF783FF4B
:101B0000012211462846FEF744FF2320FFF77BFF02
:101B100002212846FEF730FF08B1012400E000242E
:101B2000002201212846FEF734FF1420FFF76BFF47
:101B3000204670BD000C014070B506465FF00804F9
:101B4000FFF7D4FF00284FEA450003D0C0B240F0B1
:101B5000010501E000F0FE05641E14F0FF04EFD162
:101B6000304600F003F8284670BD000010B50F4C59
:101B7000C8B1012202212046FEF70BFF0F20FFF71C
:101B800042FF012211462046FEF703FF1920FFF70E
:101B90003AFF002201212046FEF7FBFEBDE810407F
:101BA0001420FFF730BF0022E4E70000000C0140E2
:101BB00070B505460824280601D5012000E0002064
:101BC000FFF7D4FF6806050E641E14F0FF04F2D17F
:101BD000BDE87040FFF78ABF10B5114C0122022109
:101BE0002046FEF7D6FE2320FFF70DFF0122114607
:101BF0002046FEF7CEFE2320FFF705FF002202213C
:101C00002046FEF7C6FE2320FFF7FDFE002201213D
:101C10002046FEF7BEFEBDE810402320FFF7F3BECE
:101C2000000C014010B5104C002201212046FEF7A7
:101C3000B0FE2320FFF7E7FE002202212046FEF738
:101C4000A8FE2320FFF7DFFE012211462046FEF703
:101C5000A0FE2320FFF7D7FE20460122BDE810405A
:101C60000221FEF796BE0000000C01407047FFF70E
:101C700025B830B58FB028216846FEF76AFA1421DE
:101C80000AA8FEF766FA01210804CDE90010002435
:101C9000029402250491CDE907504FF4E010099019
:101CA0006846FFF781F90F20CDE90A056802CDE902
:101CB0000C4002210AA80E94FFF78AF80FB030BD3D
:101CC0007047000070B5044600680169E26821F4BD
:101CD0004051114301612169A068084361690843CB
:101CE0002168CA6841F20C639A430243CA602068C3
:101CF0004169A26921F44071114341611E49206884
:101D0000884202D1FFF70AF901E0FFF7F7F800EB8C
:101D1000C00101EB0012606864218000B2FBF0F3A7
:101D2000B3FBF1F36FF018067343B2FBF0F5B2FBAF
:101D3000F0F605EB8305322303EB0515B5FBF1F552
:101D4000B6FBF1F605F0F00505EB0615B2FBF0F673
:101D5000B2FBF0F0B0FBF1F06FF01802504306EB6D
:101D6000800003EB0010B0FBF1F0216800F00F00E1
:101D70002844886070BD000000380140FEE7000084
:101D800001B584B00121642204A88DE807000B4648
:101D9000002278210248FEF7CBFE05B000BD00000E
:101DA0002400002001B584B00121642204A88DE83C
:101DB00007000B46402278210248FEF7B9FE05B025
:101DC00000BD0000240000200FB4084B10B504A98A
:101DD00002AA039800F0DEF8044602A9002000F0F1
:101DE00070FC204610BC5DF814FB0000C326000800
:101DF0000907090E002804DB00F1E02080F8001438
:101E0000704700F00F0000F1E02080F8141D7047CB
:101E100002E008C8121F08C1002AFAD170477047B3
:101E2000002001E001C1121F002AFBD17047000011
:101E30002DE9FF5FDDE90220010DDDF838B0024336
:101E400018D044F61050A1F2FF3141430D140F9801
:101E5000012820D0A5EB0B00401C5FEA000A4FF0E0
:101E60000004474EDFF81C91A046504616D5CAF133
:101E7000000728E00F98012443A2012808D0002180
:101E800000980F9BC0E90021C0E90243BDE8FF9F15
:101E90006FEA0B01F4E7CBF10000DEE7074612E042
:101EA000F80707D02246334640464946FEF703FA74
:101EB000804689462246334610461946FEF7FBF90E
:101EC00004460E467F10002FEAD1DDE90201BAF187
:101ED000000F42464B4602DAFEF7EDF901E0FEF74D
:101EE00094FB04460E460022284BFEF715FC03D84F
:101EF0004FF0FF30014607E00022254B20463146D7
:101F0000FEF732F9FEF7F0FB102409E0002C0ADBA3
:101F10000A220023FEF793FA019B30321A55641E01
:101F200050EA0102F2D1641C019AC4F11103144475
:101F30000F9A012A03D0012208430DD10AE0084379
:101F400004D000204FF0110B0F9080E7A3EB0B059E
:101F50006D1E0DE05B4504DD4FF0000205F101054B
:101F600004E003DA4FF00002A5F10105002AECD0ED
:101F700000980F99C0E90231C0E9004586E70000EA
:101F8000000024400000F03F300000000000F0435B
:101F90000000E03F2DE9FF4F95B09B46894606467D
:101FA00000250FE2252877D100242746F84A012191
:101FB000059400E0044316F8013F203B01FA03F0CA
:101FC0001042F7D130782A2811D06FF02F033078E3
:101FD000A0F13002092A16D8059A44F0020402EB57
:101FE000820203EB42021044761C0590EFE759F899
:101FF000042B0592002A03DA504244F40054059061
:1020000044F00204761C30782E2816D116F8010F01
:1020100044F004042A280DD06FF02F023078A0F18C
:102020003003092B09D807EB870302EB4303C718DA
:10203000761CF3E759F8047B761C30786C280FD0B7
:1020400006DC4C2817D068280DD06A2814D104E08B
:10205000742810D07A280FD10DE044F400140AE05F
:1020600044F4801401E044F440147278824202D1B6
:1020700004F58014761C761C307866280BD013DCAF
:10208000582877D009DC002875D04528F6D0462896
:10209000F4D047281AD19DE118E0632835D0642890
:1020A00079D0652812D195E1702873D008DC6728B3
:1020B000F1D069286FD06E280DD06F2806D1B5E019
:1020C00073282CD0752875D0782874D05A46179963
:1020D00090476D1C75E1C4F30250022809D0032813
:1020E0000DD0D9F8001004280DD00D6009F10409B5
:1020F00067E1D9F80010EA17C1E90052F6E7D9F80C
:1021000000100D80F2E70D70F0E719F8041B8DF850
:10211000001000208DF80100EA46012003E059F884
:1021200004AB4FF0FF3061074FF0000102D40DE027
:1021300008F101018846B9420FDA8045F8DB1AF848
:1021400008100029F4D108E008F101018846814215
:10215000FADB1AF808100029F6D105985B46A0EBC7
:10216000080721463846179A00F094FA284400EBF5
:10217000080507E04DE029E10DE01AF8010B5A4689
:1021800017999047B8F10108F7D25B4621463846C7
:10219000179A13E142E00A220092C4F302524FF070
:1021A000000A022A08D059F804CB032A4FEAEC713E
:1021B0000AD00DE029E02AE009F1070121F0070229
:1021C000F2E802C1914609E00FFA8CFC4FEAEC718B
:1021D000042A03D14FFA8CFC4FEAEC71002907DA8C
:1021E0000A460021DCF1000C61EB02012D2202E025
:1021F000220504D52B228DF80420012203E0E207FA
:1022000001D02022F7E7904659E00A2102E010228F
:102210000DE010214FF0000A00910BE010224FF06A
:10222000000A44F004040827009203E008224FF05B
:10223000000A0092C4F30252022A05D059F804CBD6
:102240000021032A08D009E009F1070121F0070263
:10225000F2E802C1914605E01FFA8CFC042A01D184
:102260000CF0FF0C4FF00008220728D5702806D08C
:10227000009B83F0100353EA0A0305D00EE04022CE
:102280008DF80420012208E05CEA010206D0302229
:102290008DF804208DF8050002229046009B83F003
:1022A000080353EA0A030AD15CEA010201D162077A
:1022B00005D530228DF804204FF001087F1E5828E4
:1022C00004D034A003900EA802900DE036A0F9E7E8
:1022D00053466046009AFEF7B2F884460398825C43
:1022E0000298401E029002705CEA0100F0D1029850
:1022F00006A9081A00F1200A600702D524F48034E8
:1023000000E00127574502DDA7EB0A0000E00020AE
:1023100000EB0A01009005984144401A0590E00343
:1023200006D45B462146179A059800F0B3F9054498
:10233000002706E001A85A46C05D179990476D1C1A
:102340007F1C4745F6DBE0030CD55B462146179A18
:10235000059800F09FF9054404E030205A4617998B
:1023600090476D1C0099481E00900029F5DC08E09C
:10237000029802995A460078491C02911799904791
:102380006D1CBAF10001AAF1010AF1DC65E100005F
:10239000092801003031323334353637383961623B
:1023A00063646566000000003031323334353637FF
:1023B00038394142434445460000000000F058F9D6
:1023C0000544761C307800287FF4ECAD19B028461F
:1023D000BDE8F08F620700D4062709F1070222F05A
:1023E000070CFCE80223E14603F000485FEA080C12
:1023F00002D00FF2702C0DE05FEA045C02D50FF200
:10240000682C07E05FEAC47C02D00FF2602C01E088
:10241000AFF2700C4FF0FF3823F00043CDF850C0FE
:1024200065280CD006DC452809D046281DD0472851
:102430003DD13DE0662818D067287ED138E00021E4
:10244000112F01DB112000E0781CCDE9000106A965
:102450000EA8FFF7EDFCDDE90F010E9A03910021B4
:10246000009207F1010A04914DE04FF000400097FF
:10247000CDE9011006A90EA8FFF7DAFCDDE90F028D
:1024800003920E9B11990022DDF80CA00093049298
:1024900011B9791C00EB010AB7EB0A0004D4C0F1B2
:1024A000FF3007F1010A0490AAEB0700019044E015
:1024B000012F00DA01270021112F01DD112000E09A
:1024C0003846CDE9000106A90EA8FFF7B1FCDDE909
:1024D0000F010E9A0391002104910092BA46210740
:1024E0000CD40399514500DA8A46BAF1010F05DD93
:1024F000009AAAF10101515C302908D0B84202DAF1
:1025000010F1040F06DA0121CDE9011015E0AAF15E
:102510000101E9E7002805DC049901440491AAEBD4
:10252000000102E0411C514500DD8A460499401A31
:10253000401C01904FF000400290200704D4019805
:10254000504501DBCDF8048000208DF84F00029843
:102550000DF14F07B0F1004F25D02B200E900298BF
:102560004FF0020800280CDA404202902D200E9015
:1025700007E00A210298FDF74CFF3031029007F87E
:10258000011DB8F10001A8F10108F2DC0298002851
:10259000EFD1791E0E980870307800F0200040F0DE
:1025A000450007F8020D12A8C01B00F10708149897
:1025B000007800B1012000EB0A01019801EBE07105
:1025C00005984144401A401E0590E00306D45B463E
:1025D0002146179A059800F05DF805441498007894
:1025E00018B15A46179990476D1CE00324D55B46F5
:1025F0002146179A059800F04DF805441CE0049810
:10260000002807DBDDE90301884203DD0098405C18
:10261000179901E0179930205A469047049805F120
:102620000105401C04900198401E019004D12E2009
:102630005A46179990476D1CBAF10001AAF1010A98
:10264000DDDC05E017F8010B5A46179990476D1C21
:10265000B8F10001A8F10108F4DC5B462146179AA5
:102660000598ABE62D0000002B00000020000000C4
:102670002DE9F041044600251E461746880404D47F
:1026800005E039462020B0476D1C641EF9D5284668
:10269000BDE8F0812DE9F041044600251E46904634
:1026A000C80301D5302700E02027880404D505E0C1
:1026B00041463846B0476D1C641EF9D52846BDE832
:1026C000F0810A68531C0B6010707047FEF7FEFA29
:1026D000FFF7CFFAFEF7AEFFFFF708F8FFF726F88F
:1026E000FFF762F8FFF740F84FF48055134E144C93
:1026F000DFF850806F004FF4C87929463046FEF766
:102700003BF9B8B9FFF7D8F92060FDF753FE024650
:102710000B460DA10F48FFF757FB002102230D4A7E
:102720000846FFF7AFF839464046FEF72AF9484613
:10273000FEF720F80320FEF71DF8DEE7000C01404D
:1027400004000020001001402054203D20252E319F
:1027500066205E001800002000000000000000005D
:10276000002F000000000700070000147F147F14F2
:1027700000242A7F2A120062640813230036495578
:10278000225000000503000000001C224100000050
:1027900041221C000014083E08140008083E0808E6
:1027A000000000A060000008080808080000606041
:1027B0000000002010080402003E5149453E000080
:1027C000427F4000004261514946002141454B3162
:1027D000001814127F10002745454539003C4A492E
:1027E00049300001710905030036494949360006A0
:1027F0004949291E00003636000000005636000008
:102800000008142241000014141414140000412282
:10281000140800020151090600324959513E007C5A
:102820001211127C007F49494936003E4141412244
:10283000007F4141221C007F49494941007F09092D
:102840000901003E4149497A007F0808087F0000DD
:10285000417F4100002040413F01007F0814224198
:10286000007F40404040007F020C027F007F040850
:10287000107F003E4141413E007F09090906003EAC
:102880004151215E007F09192946004649494931D5
:102890000001017F0101003F4040403F001F2040F8
:1028A000201F003F4038403F0063140814630007B6
:1028B0000870080700615149454300007F4141000D
:1028C00000552A552A55000041417F0000040201AD
:1028D000020400404040404000000102040000208B
:1028E00054545478007F48444438003844444420C9
:1028F00000384444487F00385454541800087E0976
:1029000001020018A4A4A47C007F0804047800003D
:10291000447D4000004080847D00007F10284400FA
:102920000000417F4000007C04180478007C08040B
:10293000047800384444443800FC24242418001847
:10294000242418FC007C0804040800485454542033
:1029500000043F444020003C4040207C001C2040BC
:10296000201C003C4030403C004428102844001CFF
:10297000A0A0A07C004464544C44141414141414F7
:102980000000000000000000000000000000000047
:10299000000000F8000000000000003330000000DC
:1029A00000100C06100C06000000000000000000E3
:1029B00040C07840C0784000043F04043F04040055
:1029C000007088FC08300000001820FF211E000065
:1029D000F008F000E018000000211C031E211E007A
:1029E00000F00888700000001E2123241927211000
:1029F00010160E00000000000000000000000000A3
:102A0000000000E018040200000000071820400049
:102A100000020418E0000000004020180700000039
:102A2000404080F0804040000202010F010202009D
:102A3000000000F0000000000101011F0101010081
:102A4000000000000000000080B0700000000000E6
:102A5000000000000000000000010101010101016F
:102A60000000000000000000003030000000000006
:102A700000000000806018040060180601000000DB
:102A800000E010080810E000000F102020100F00D8
:102A9000001010F8000000000020203F202000005F
:102AA00000700808088870000030282422213000B7
:102AB00000300888884830000018202020110E00BF
:102AC0000000C02010F8000000070424243F240068
:102AD00000F80888880808000019212020110E003D
:102AE00000E0108888180000000F112020110E004F
:102AF00000380808C83808000000003F0000000047
:102B00000070880808887000001C222121221C0007
:102B100000E010080810E0000000312222110F0030
:102B2000000000C0C00000000000003030000000C5
:102B30000000008000000000000080600000000035
:102B4000000080402010080000010204081020004E
:102B50004040404040404000040404040404040099
:102B6000000810204080000000201008040201002E
:102B7000007048080808F00000000030360100002E
:102B8000C030C828E810E0000718272423140B00E1
:102B90000000C038E0000000203C2302022738205B
:102BA00008F8888888700000203F202020110E003F
:102BB000C030080808083800071820202010080036
:102BC00008F808080810E000203F202020100F001F
:102BD00008F88888E8081000203F202023201800EB
:102BE00008F88888E8081000203F20000300000053
:102BF000C03008080838000007182020221E0200F4
:102C000008F808000008F808203F210101213F20B2
:102C1000000808F8080800000020203F20200000DD
:102C200000000808F8080800C08080807F000000CD
:102C300008F888C028180800203F20012638200006
:102C400008F8080000000000203F2020202030006D
:102C500008F8F800F8F80800203F003F003F200087
:102C600008F830C00008F808203F200007183F008F
:102C7000E01008080810E0000F10202020100F00BE
:102C800008F808080808F000203F210101010000B1
:102C9000E01008080810E0000F18242438504F00F6
:102CA00008F8888888887000203F2000030C3020B6
:102CB00000708808080838000038202121221C00F4
:102CC000180808F8080818000000203F200000003D
:102CD00008F808000008F808001F202020201F0026
:102CE0000878880000C83808000007380E01000086
:102CF000F80800F80008F800033C0700073C030050
:102D0000081868808068180820302C03032C3020B5
:102D10000838C800C83808000000203F2000000024
:102D200010080808C838080020382621202018007C
:102D3000000000FE020202000000007F4040400050
:102D4000000C30C000000000000000010638C00088
:102D500000020202FE000000004040407F00000030
:102D60000000040202020400000000000000000055
:102D70000000000000000000808080808080808053
:102D8000000202040000000000000000000000003B
:102D900000008080808000000019242222223F2031
:102DA00008F8008080000000003F112020110E0074
:102DB0000000008080800000000E11202020110003
:102DC000000000808088F800000E112020103F20B5
:102DD0000000808080800000001F22222222130039
:102DE000008080F0888888180020203F2020000084
:102DF0000000808080808000006B94949493600039
:102E000008F8008080800000203F210000203F2043
:102E100000809898000000000020203F2020000043
:102E2000000000809898000000C08080807F000033
:102E300008F8000080808000203F24022D30200010
:102E4000000808F8000000000020203F20200000BB
:102E50008080808080808000203F20003F20003FD5
:102E60008080008080800000203F210000203F20E3
:102E70000000808080800000001F202020201F0094
:102E8000808000808000000080FFA12020110E00C3
:102E90000000008080808000000E112020A0FF80B4
:102EA000808080008080800020203F212000010061
:102EB00000008080808080000033242424241900B6
:102EC000008080E0808000000000001F20200000C3
:102ED0008080000000808000001F202020103F2004
:102EE000808080000080808000010E300806010094
:102EF00080800080008080800F300C030C300F0039
:102F000000808000808080000020312E0E31200063
:102F1000808080000080808080818E701806010093
:102F200000808080808080000021302C22213000B1
:102F300000000000807C020200000000003F4040D2
:102F400000000000FF00000000000000FF00000083
:102F50000002027C800000000040403F00000000B2
:102F6000000601010202040400000000000000004D
:102F70000000000000000000010203040607080929
:102F80000000000001020304A82F00080000002038
:102F900018000000101E0008C02F000818000020B4
:102FA000A0040000201E0008000000000000000037
:102FB0000100000010000000000000000024F400E8
:04000005080000ED02
:00000001FF
